:020000040800F2
:1000000000000120D15D0008715C0008775C0008E9
:100010007D5C0008835C0008895C0008000000002B
:100020000000000000000000000000008F5C0008DD
:100030009B5C000800000000A75C0008B35C00089F
:10004000215E0008215E0008215E0008215E000894
:10005000215E0008215E0008215E0008215E000884
:10006000215E0008215E0008215E0008215E000874
:10007000215E0008215E0008215E0008215E000864
:10008000215E0008215E0008215E000800000000DB
:10009000000000000000000000000000BF5C00083D
:1000A000215E0008215E0008215E0008215E000834
:1000B000215E0008215E00082D5D0008215E000819
:1000C000215E0008215E0008215E0008215E000814
:1000D000215E0008D15C0008215E000800000000DD
:1000E000E55C0008215E0008215E000800000000B9
:1000F000000000000000000000000000215E000879
:1001000000000000215E0008215E0008215E00085A
:1001100000000000000000000000000000000000DF
:10012000215E0008215E0008055D0008215E0008D0
:10013000215E000800000000000000000000000038
:10014000000000000000000000000000215E000828
:10015000215E0008215E0008195D0008215E00088C
:10016000215E0008215E0008000000000000000081
:10017000000000000000000000000000000000007F
:1001800000000000215E00080000000000000000E8
:04019000215E0008E4
:1001980010B5054C237833B9044B13B10448AFF3B9
:1001A80000800123237010BD900000200000000093
:1001B800708C000808B5034B1BB103490348AFF323
:1001C800008008BD0000000094000020708C00082A
:1001D800034613F8012B002AFBD1181A013870477F
:1001E80081F0004102E000BF83F0004330B54FEAE0
:1001F80041044FEA430594EA050F08BF90EA020F4D
:100208001FBF54EA000C55EA020C7FEA645C7FEADF
:10021800655C00F0E2804FEA5454D4EB5555B8BF02
:100228006D420CDD2C4480EA020281EA030382EA73
:10023800000083EA010180EA020281EA0303362D05
:1002480088BF30BD11F0004F4FEA01314FF4801CD8
:100258004CEA113102D0404261EB410113F0004FEA
:100268004FEA03334CEA133302D0524263EB4303A1
:1002780094EA050F00F0A780A4F10104D5F1200E3F
:100288000DDB02FA0EFC22FA05F2801841F100019A
:1002980003FA0EF2801843FA05F359410EE0A5F16E
:1002A80020050EF1200E012A03FA0EFC28BF4CF09F
:1002B800020C43FA05F3C01851EBE37101F0004555
:1002C80007D54FF0000EDCF1000C7EEB00006EEB62
:1002D8000101B1F5801F1BD3B1F5001F0CD34908EC
:1002E8005FEA30004FEA3C0C04F101044FEA445243
:1002F80012F5800F80F09A80BCF1004F08BF5FEACA
:10030800500C50F1000041EB045141EA050130BDA9
:100318005FEA4C0C404141EB0101013C28BFB1F5BB
:10032800801FE9D291F0000F04BF01460020B1FA06
:1003380081F308BF2033A3F10B03B3F120020CDAD9
:100348000C3208DD02F1140CC2F10C0201FA0CF0B7
:1003580021FA02F10CE002F11402D8BFC2F1200C1C
:1003680001FA02F120FA0CFCDCBF41EA0C019040D2
:10037800E41AA2BF01EB0451294330BD6FEA04041B
:100388001F3C1CDA0C340EDC04F11404C4F1200206
:1003980020FA04F001FA02F340EA030021FA04F318
:1003A80045EA030130BDC4F10C04C4F1200220FA6F
:1003B80002F001FA04F340EA0300294630BD21FAAD
:1003C80004F0294630BD94F0000F83F4801306BF73
:1003D80081F480110134013D4EE77FEA645C18BF67
:1003E8007FEA655C29D094EA050F08BF90EA020FFE
:1003F80005D054EA000C04BF1946104630BD91EAF6
:10040800030F1EBF0021002030BD5FEA545C05D1F8
:100418004000494128BF41F0004130BD14F5800437
:100428003CBF01F5801130BD01F0004545F0FE41AB
:1004380041F470014FF0000030BD7FEA645C1ABFE0
:10044800194610467FEA655C1CBF0B46024650EA17
:10045800013406BF52EA033591EA030F41F4002143
:1004680030BD00BF90F0000F04BF0021704730B5C9
:100478004FF4806404F132044FF000054FF000019E
:1004880050E700BF90F0000F04BF0021704730B55F
:100498004FF4806404F1320410F0004548BF404234
:1004A8004FF000013EE700BF42004FEAE2014FEA89
:1004B80031014FEA02701FBF12F07F4393F07F4F64
:1004C80081F06051704732F07F4208BF704793F067
:1004D8007F4F04BF41F40021704730B54FF460747A
:1004E80001F0004521F000411CE700BF50EA01027D
:1004F80008BF704730B54FF000050AE050EA010226
:1005080008BF704730B511F0004502D5404261EB95
:1005180041014FF4806404F132045FEA915C3FF4D6
:10052800D8AE4FF003025FEADC0C18BF03325FEA73
:10053800DC0C18BF033202EBDC02C2F1200300FA24
:1005480003FC20FA02F001FA03FE40EA0E0021FA49
:1005580002F11444BDE600BF70B54FF0FF0C4CF437
:10056800E06C1CEA11541DBF1CEA135594EA0C0FE9
:1005780095EA0C0F00F0DEF82C4481EA030621EA24
:100588004C5123EA4C5350EA013518BF52EA03355F
:1005980041F4801143F4801338D0A0FB02CE4FF011
:1005A8000005E1FB02E506F00042E0FB03E54FF041
:1005B8000006E1FB03569CF0000F18BF4EF0010E39
:1005C800A4F1FF04B6F5007F64F5407404D25FEA35
:1005D8004E0E6D4146EB060642EAC62141EA5551E8
:1005E8004FEAC52040EA5E504FEACE2EB4F1FD0C2A
:1005F80088BFBCF5E06F1ED8BEF1004F08BF5FEAA8
:10060800500E50F1000041EB045170BD06F0004659
:1006180046EA010140EA020081EA0301B4EB5C0406
:10062800C2BFD4EB0C0541EA045170BD41F48011FE
:100638004FF0000E013C00F3AB8014F1360FDEBF23
:10064800002001F0004170BDC4F10004203C35DAFF
:100658000C341BDC04F11404C4F1200500FA05F382
:1006680020FA04F001FA05F240EA020001F0004223
:1006780021F0004110EBD37021FA04F642EB060199
:100688005EEA430E08BF20EAD37070BDC4F10C04C3
:10069800C4F1200500FA04F320FA05F001FA04F287
:1006A80040EA020001F0004110EBD37041F1000173
:1006B8005EEA430E08BF20EAD37070BDC4F120057E
:1006C80000FA05F24EEA020E20FA04F301FA05F2E6
:1006D80043EA020321FA04F001F0004121FA04F28E
:1006E80020EA020000EBD3705EEA430E08BF20EA5E
:1006F800D37070BD94F0000F0FD101F00046400098
:1007080041EB010111F4801F08BF013CF7D041EA19
:10071800060195F0000F18BF704703F0004652001D
:1007280043EB030313F4801F08BF013DF7D043EAEE
:100738000603704794EA0C0F0CEA135518BF95EAA4
:100748000C0F0CD050EA410618BF52EA4306D1D12B
:1007580081EA030101F000414FF0000070BD50EA4A
:10076800410606BF1046194652EA430619D094EAD4
:100778000C0F02D150EA013613D195EA0C0F05D1BE
:1007880052EA03361CBF104619460AD181EA030112
:1007980001F0004141F0FE4141F470014FF00000CA
:1007A80070BD41F0FE4141F4780170BD70B54FF065
:1007B800FF0C4CF4E06C1CEA11541DBF1CEA1355E5
:1007C80094EA0C0F95EA0C0F00F0A7F8A4EB0504C7
:1007D80081EA030E52EA03354FEA013100F08880BE
:1007E8004FEA03334FF0805545EA131343EA126387
:1007F8004FEA022245EA111545EA10654FEA00263C
:100808000EF000419D4208BF964244F1FD0404F5F4
:10081800407402D25B084FEA3202B61A65EB030550
:100828005B084FEA32024FF480104FF4002CB6EB0D
:10083800020E75EB030E22BFB61A754640EA0C008D
:100848005B084FEA3202B6EB020E75EB030E22BFCD
:10085800B61A754640EA5C005B084FEA3202B6EB0E
:10086800020E75EB030E22BFB61A754640EA9C00CD
:100878005B084FEA3202B6EB020E75EB030E22BF9D
:10088800B61A754640EADC0055EA060E18D04FEA5B
:10089800051545EA16754FEA06164FEAC30343EAFB
:1008A80052734FEAC2025FEA1C1CC0D111F4801FC8
:1008B8000BD141EA00014FF000004FF0004CB6E7C1
:1008C80011F4801F04BF01430020B4F1FD0C88BF60
:1008D800BCF5E06F3FF6AFAEB5EB030C04BFB6EB6B
:1008E800020C5FEA500C50F1000041EB045170BD5E
:1008F8000EF0004E4EEA113114EB5C04C2BFD4EB8B
:100908000C0541EA045170BD41F480114FF0000E0E
:10091800013C90E645EA060E8DE60CEA135594EA8A
:100928000C0F08BF95EA0C0F3FF43BAF94EA0C0F8D
:100938000AD150EA01347FF434AF95EA0C0F7FF402
:1009480025AF104619462CE795EA0C0F06D152EA56
:1009580003353FF4FDAE1046194622E750EA41063A
:1009680018BF52EA43067FF4C5AE50EA41047FF44B
:100978000DAF52EA43057FF4EBAE12E74A0011D2FD
:1009880012F5001211D20DD56FF47873B3EB6252E1
:100998000ED44FEAC12343F0004343EA505323FAED
:1009A80002F070474FF00000704750EA013002D162
:1009B8004FF0FF3070474FF00000704753B94AB905
:1009C800002908BF00281CBF4FF0FF314FF0FF304F
:1009D80000F070B9ADF1080C6DE904CE00F006F82E
:1009E800DDF804E0DDE9022304B070472DE9F047A3
:1009F800089E0D4604460F46002B4AD18A4294466B
:100A080065D9B2FA82F343B102FA03FCC3F12002BA
:100A18009F4020FA02F217439C404FEA1C4E1FFAEF
:100A28008CF5B7FBFEF1220C0EFB117742EA074268
:100A380001FB05F090420AD91CEB020201F1FF37D5
:100A480080F01B81904240F2188102396244121AE8
:100A5800A4B2B2FBFEF00EFB102244EA024400FBF3
:100A680005F5A5420AD91CEB040400F1FF3280F019
:100A78000681A54240F203816444023840EA0140FD
:100A8800641B00211EB1DC400023C6E90043BDE819
:100A9800F0878B4208D9002E00F0EC800021C6E9CF
:100AA80000050846BDE8F087B3FA83F1002949D16B
:100AB800AB4202D3824200F2F780841A65EB03024C
:100AC80001201746002EE2D0C6E90047DFE702B949
:100AD800FFDEB2FA82F3002B40F08F808A1A4FEAC9
:100AE8001C471FFA8CFE0121B2FBF7F507FB152006
:100AF800220C42EA00420EFB05F0904208D91CEB9A
:100B0800020205F1FF3802D2904200F2CA8045463F
:100B1800121AA4B2B2FBF7F007FB102244EA02440F
:100B28000EFB00FEA64508D91CEB040400F1FF32B9
:100B380002D2A64500F2BA801046A4EB0E0440EAA1
:100B480005409FE7C1F120078B4022FA07FC4CEAD9
:100B5800030C05FA01F420FA07F3FD40234300FAD9
:100B680001F94FEA1C401FFA8CFEB5FBF0F81C0C8B
:100B780000FB185544EA054408FB0EF5A54202FAA5
:100B880001F20BD91CEB040408F1FF3A80F08780CE
:100B9800A54240F28480A8F102086444641B9DB217
:100BA800B4FBF0F300FB134445EA044403FB0EFED8
:100BB800A64508D91CEB040403F1FF306BD2A64507
:100BC80069D9023B644443EA0840A0FB0283A4EBD2
:100BD8000E049C42C6461D4655D352D056B1B9EBB9
:100BE8000E0364EB050404FA07F7CB40CC401F431F
:100BF800C6E900740021BDE8F087C3F1200102FABC
:100C080003FC20FA01F225FA01F19D402A434FEA3C
:100C18001C471FFA8CFEB1FBF7F007FB1015110CEF
:100C280041EA054100FB0EF58D4204FA03F408D9A8
:100C38001CEB010100F1FF382FD28D422DD902386B
:100C48006144491B92B2B1FBF7F507FB151142EA63
:100C5800014205FB0EF1914208D91CEB020205F195
:100C6800FF3816D2914214D9023D6244521A45EA1D
:100C7800004139E73146304609E73946E7E610468C
:100C8800FCE6C145AAD2B8EB020E63EB0C050138AD
:100C9800A4E74546EAE7034695E74046D1E7D0464C
:100CA8007CE7023D624433E708460BE764440238B8
:100CB80043E700BF704700BF80B5F6B000AF07F547
:100CC800EC73A3F5E673186007F5EC73A3F5E87306
:100CD800196007F5EC73A3F5EA731A6007F5EC736E
:100CE800A3F5E6731B68002B06D007F5EC73A3F594
:100CF800E8731B68002B02D1002301F094BA07F5B2
:100D0800EC73A3F5E6731B681B6823F0010207F573
:100D1800EC73A3F5E6731B681A600023C7F8D0319B
:100D28000123C7F8D43107F5EC73A3F5E8731B6802
:100D38005B68D7F8D42102FB03F307F5EC72A2F540
:100D4800EA721268B2FBF3F3C7F8D031D7F8D031A2
:100D580048F6B702934205D9D7F8D4310233C7F819
:100D6800D431E0E700BF07F5EC73A3F5E6731B6821
:100D7800A34A934240F08C82A24B5B6CA14A43F099
:100D8800010353649F4B1B6B9E4A43F0010313639B
:100D980007F5EC73A3F5E8731B681B68002B40F09C
:100DA800938007F5DA7300221A605A609A60DA6055
:100DB8001A615A619A61944BC7F8B4310823C7F88D
:100DC800B8310223C7F8BC310223C7F8C431012364
:100DD800C7F8CC3107F5DA73184601F02DFA07F594
:100DE800EC73A3F5E6731B689B6943F0600207F593
:100DF800EC73A3F5E6731B689A6107F5EC73A3F52A
:100E0800E6731B689B6943F0080207F5EC73A3F5CA
:100E1800E6731B689A6107F5EC73A3F5E6731B6824
:100E28001B6A43F0010207F5EC73A3F5E6731B6830
:100E38001A6207F5EC73A3F5E6731B685B6C43F461
:100E4800004207F5EC73A3F5E6731B685A6407F5CF
:100E5800EC73A3F5E6731B68DB6843F0010207F542
:100E6800EC73A3F5E6731B68DA6007F5EC73A3F57A
:100E7800E6731B68DB6843F0020207F5EC73A3F521
:100E8800E6731B68DA6007F5EC73A3F5E8731B6873
:100E98009B68D7F8D02102FB03F31846FFF7E2FA64
:100EA8004FF00002594BFFF781FC02460B461046F3
:100EB8001946FFF763FD024607F5EC73A3F5E673E1
:100EC8001B685A6301F072B907F5EC73A3F5E87370
:100ED8001B681B68012B40F09B8007F5CC73002230
:100EE8001A605A609A60DA601A615A619A61464BD0
:100EF800C7F898310923C7F89C310223C7F8A031F5
:100F08000223C7F8A8310123C7F8B03107F5CC731D
:100F1800184601F091F907F5EC73A3F5E6731B6821
:100F28009B6943F4C04207F5EC73A3F5E6731B68AD
:100F38009A6107F5EC73A3F5E6731B689B6943F4A4
:100F4800006207F5EC73A3F5E6731B689A6107F571
:100F5800EC73A3F5E6731B681B6A43F0100207F5F0
:100F6800EC73A3F5E6731B681A6207F5EC73A3F537
:100F7800E6731B685B6C43F4004207F5EC73A3F55A
:100F8800E6731B685A6407F5EC73A3F5E6731B68F0
:100F9800DB6843F0010207F5EC73A3F5E6731B6801
:100FA800DA6007F5EC73A3F5E6731B68DB6843F0BA
:100FB800040207F5EC73A3F5E6731B68DA6007F51E
:100FC800EC73A3F5E8731B689B68D7F8D02102FB84
:100FD80003F31846FFF746FA4FF000020B4BFFF7F2
:100FE800E5FB02460B4610461946FFF7C7FC0246CA
:100FF80007F5EC73A3F5E6731B689A6301F0D6B89E
:1010080000000140003802400000024000408F40CC
:1010180007F5EC73A3F5E8731B681B68022B40F017
:10102800938007F5BE7300221A605A609A60DA60EE
:101038001A615A619A61944BC7F87C310A23C7F840
:1010480080310223C7F884310223C7F88C31012389
:10105800C7F8943107F5BE73184601F0EDF807F5A7
:10106800EC73A3F5E6731B68DB6943F0600207F5D0
:10107800EC73A3F5E6731B68DA6107F5EC73A3F567
:10108800E6731B68DB6943F0080207F5EC73A3F508
:10109800E6731B68DA6107F5EC73A3F5E6731B6862
:1010A8001B6A43F4807207F5EC73A3F5E6731B68BB
:1010B8001A6207F5EC73A3F5E6731B685B6C43F4DF
:1010C800004207F5EC73A3F5E6731B685A6407F54D
:1010D800EC73A3F5E6731B68DB6843F0010207F5C0
:1010E800EC73A3F5E6731B68DA6007F5EC73A3F5F8
:1010F800E6731B68DB6843F0080207F5EC73A3F599
:10110800E6731B68DA6007F5EC73A3F5E8731B68F0
:101118009B68D7F8D02102FB03F31846FFF7A2F922
:101128004FF00002594BFFF741FB02460B461046B1
:101138001946FFF723FC024607F5EC73A3F5E6739F
:101148001B68DA6301F032B807F5EC73A3F5E873AE
:101158001B681B68032B40F0938007F5B0730022CF
:101168001A605A609A60DA601A615A619A61464B4D
:10117800C7F860310B23C7F864310223C7F8683118
:101188000223C7F870310123C7F8783107F5B07327
:10119800184601F051F807F5EC73A3F5E6731B68E0
:1011A800DB6943F4C04207F5EC73A3F5E6731B68EB
:1011B800DA6107F5EC73A3F5E6731B68DB6943F4A2
:1011C800006207F5EC73A3F5E6731B68DA6107F5AF
:1011D800EC73A3F5E6731B681B6A43F4805207F5AA
:1011E800EC73A3F5E6731B681A6207F5EC73A3F5B5
:1011F800E6731B685B6C43F4004207F5EC73A3F5D8
:10120800E6731B685A6407F5EC73A3F5E6731B686D
:10121800DB6843F0010207F5EC73A3F5E6731B687E
:10122800DA6007F5EC73A3F5E6731B68DB6843F037
:10123800100207F5EC73A3F5E6731B68DA6007F58F
:10124800EC73A3F5E8731B689B68D7F8D02102FB01
:1012580003F31846FFF706F94FF000020B4BFFF7B0
:10126800A5FA02460B4610461946FFF787FB0246C9
:1012780007F5EC73A3F5E6731B681A6400F096BFD4
:10128800002300F0D0BF00BF0000024000408F40A4
:1012980007F5EC73A3F5E6731B68B3F1804F40F0D4
:1012A8004F82924B1B6C914A43F0010313648F4B9E
:1012B8001B6B8E4A43F00103136307F5EC73A3F528
:1012C800E8731B681B68002B40F0828007F5A27347
:1012D80000221A605A609A60DA601A615A619A614B
:1012E800834BC7F844310223C7F84C310223C7F8AF
:1012F80054310123C7F85C3107F5A273184600F092
:101308009BFF07F5EC73A3F5E6731B689B6943F035
:10131800600207F5EC73A3F5E6731B689A6107F59D
:10132800EC73A3F5E6731B689B6943F0080207F5A5
:10133800EC73A3F5E6731B689A6107F5EC73A3F5E4
:10134800E6731B681B6A43F0010207F5EC73A3F50B
:10135800E6731B681A6207F5EC73A3F5E6731B685E
:10136800DB6843F0010207F5EC73A3F5E6731B682D
:10137800DA6007F5EC73A3F5E6731B68DB6843F0E6
:10138800020207F5EC73A3F5E6731B68DA6007F54C
:10139800EC73A3F5E8731B689B68D7F8D02102FBB0
:1013A80003F31846FFF75EF84FF00002514BFFF7C2
:1013B800FDF902460B4610461946FFF7DFFA0246CA
:1013C80007F5EC73A3F5E6731B685A6300F0EEBEED
:1013D80007F5EC73A3F5E8731B681B68012B40F055
:1013E8008B8007F5947300221A605A609A60DA605D
:1013F8001A615A619A613E4BC7F828310123C7F830
:101408002C310223C7F830310223C7F838310123C1
:10141800C7F8403107F59473184600F00DFF07F53B
:10142800EC73A3F5E6731B689B6943F4C04207F5A8
:10143800EC73A3F5E6731B689A6107F5EC73A3F5E3
:10144800E6731B689B6943F4006207F5EC73A3F528
:10145800E6731B689A6107F5EC73A3F5E6731B68DE
:101468001B6A43F0100207F5EC73A3F5E6731B68DB
:101478001A6207F5EC73A3F5E6731B68DB6843F0A3
:10148800010207F5EC73A3F5E6731B68DA6007F54C
:10149800EC73A3F5E6731B68DB6843F0040207F5F9
:1014A800EC73A3F5E6731B68DA6007F5EC73A3F534
:1014B800E8731B689B68D7F8D02102FB03F3184632
:1014C800FEF7D0FF4FF000020A4BFFF76FF9024614
:1014D8000B4610461946FFF751FA024607F5EC731A
:1014E800A3F5E6731B689A6300F060BE00380240FB
:1014F8000000024000408F4007F5EC73A3F5E87345
:101508001B681B68022B40F0858007F58673002254
:101518001A605A609A60DA601A615A619A61864B59
:10152800C7F80C310223C7F810310223C7F8143169
:101538000223C7F81C310123C7F8243107F5867345
:10154800184600F079FE07F5EC73A3F5E6731B68FF
:10155800DB6943F0600207F5EC73A3F5E6731B68DB
:10156800DA6107F5EC73A3F5E6731B68DB6943F0F2
:10157800080207F5EC73A3F5E6731B68DA6107F553
:10158800EC73A3F5E6731B681B6A43F4807207F5D6
:10159800EC73A3F5E6731B681A6207F5EC73A3F501
:1015A800E6731B68DB6843F0010207F5EC73A3F5EB
:1015B800E6731B68DA6007F5EC73A3F5E6731B683E
:1015C800DB6843F0080207F5EC73A3F5E6731B68C4
:1015D800DA6007F5EC73A3F5E8731B689B68D7F826
:1015E800D02102FB03F31846FEF73CFF4FF0000240
:1015F800524BFFF7DBF802460B4610461946FFF739
:10160800BDF9024607F5EC73A3F5E6731B68DA63C8
:1016180000F0CCBD07F5EC73A3F5E8731B681B68F5
:10162800032B40F0858007F1F00300221A605A600E
:101638009A60DA601A615A619A613F4BC7F8F030D4
:101648000323C7F8F4300223C7F8F8300223C7F899
:1016580000310123C7F8083107F1F003184600F0FC
:10166800EBFD07F5EC73A3F5E6731B68DB6943F440
:10167800C04207F5EC73A3F5E6731B68DA6107F55A
:10168800EC73A3F5E6731B68DB6943F4006207F5A6
:10169800EC73A3F5E6731B68DA6107F5EC73A3F541
:1016A800E6731B681B6A43F4805207F5EC73A3F5D5
:1016B800E6731B681A6207F5EC73A3F5E6731B68FB
:1016C800DB6843F0010207F5EC73A3F5E6731B68CA
:1016D800DA6007F5EC73A3F5E6731B68DB6843F083
:1016E800100207F5EC73A3F5E6731B68DA6007F5DB
:1016F800EC73A3F5E8731B689B68D7F8D02102FB4D
:1017080003F31846FEF7AEFE4FF000020B4BFFF74F
:101718004DF802460B4610461946FFF72FF90246C8
:1017280007F5EC73A3F5E6731B681A6400F03EBD79
:10173800002300F078BD00BF0000024000408F4049
:1017480007F5EC73A3F5E6731B68A74A934240F0CC
:101758009182A64B1B6CA54A43F002031364A34B6A
:101768001B6BA24A43F00203136307F5EC73A3F55E
:10177800E8731B681B68002B40F0978007F5EC7333
:10178800A3F582731A460023136053609360D360F5
:1017980013615361936107F5EC73A3F58273944A5F
:1017A8001A6007F5EC73A3F5827304225A6007F5F3
:1017B800EC73A3F5827302229A6007F5EC73A3F524
:1017C800827302221A6107F5EC73A3F58273022271
:1017D8009A6107F1D403184600F02EFD07F5EC7363
:1017E800A3F5E6731B689B6943F0600207F5EC7389
:1017F800A3F5E6731B689A6107F5EC73A3F5E67326
:101808001B689B6943F0080207F5EC73A3F5E673C0
:101818001B689A6107F5EC73A3F5E6731B681B6AEE
:1018280043F0010207F5EC73A3F5E6731B681A622F
:1018380007F5EC73A3F5E6731B68DB6843F0010258
:1018480007F5EC73A3F5E6731B68DA6007F5EC732C
:10185800A3F5E6731B68DB6843F0020207F5EC7337
:10186800A3F5E6731B68DA6007F5EC73A3F5E87374
:101878001B689B68D7F8D02102FB03F31846FEF7D4
:10188800F1FD4FF000025B4BFEF790FF02460B465E
:1018980010461946FFF772F8024607F5EC73A3F5F0
:1018A800E6731B685A6300F081BC07F5EC73A3F577
:1018B800E8731B681B68012B40F09E8007F5EC73EA
:1018C800A3F590731A460023136053609360D360A6
:1018D80013615361936107F5EC73A3F59073444A60
:1018E8001A6007F5EC73A3F5907305225A6007F5A3
:1018F800EC73A3F5907302229A6007F5EC73A3F5D5
:10190800907302221A6107F5EC73A3F59073022213
:101918009A6107F1B803184600F08EFC07F5EC73DE
:10192800A3F5E6731B689B6943F4C04207F5EC73A3
:10193800A3F5E6731B689A6107F5EC73A3F5E673E4
:101948001B689B6943F4006207F5EC73A3F5E67323
:101958001B689A6107F5EC73A3F5E6731B681B6AAD
:1019680043F0100207F5EC73A3F5E6731B681A62DF
:1019780007F5EC73A3F5E6731B68DB6843F0010217
:1019880007F5EC73A3F5E6731B68DA6007F5EC73EB
:10199800A3F5E6731B68DB6843F0040207F5EC73F4
:1019A800A3F5E6731B68DA6007F5EC73A3F5E87333
:1019B8001B689B68D7F8D02102FB03F31846FEF793
:1019C80051FD4FF000020B4BFEF7F0FE02460B46AE
:1019D80010461946FEF7D2FF024607F5EC73A3F549
:1019E800E6731B689A63E1E3000400400038024094
:1019F8000004024000408F4007F5EC73A3F5E8733C
:101A08001B681B68022B40F0908007F5EC73A3F568
:101A18009E731A460023136053609360D36013616A
:101A28005361936107F5EC73A3F59E738F4A1A60AF
:101A380007F5EC73A3F59E7302229A6007F5EC7321
:101A4800A3F59E7302221A6107F5EC73A3F59E7342
:101A580002229A6107F19C03184600F0EDFB07F596
:101A6800EC73A3F5E6731B68DB6943F0600207F5C6
:101A7800EC73A3F5E6731B68DA6107F5EC73A3F55D
:101A8800E6731B68DB6943F0080207F5EC73A3F5FE
:101A9800E6731B68DA6107F5EC73A3F5E6731B6858
:101AA8001B6A43F4807207F5EC73A3F5E6731B68B1
:101AB8001A6207F5EC73A3F5E6731B68DB6843F05D
:101AC800010207F5EC73A3F5E6731B68DA6007F506
:101AD800EC73A3F5E6731B68DB6843F0080207F5AF
:101AE800EC73A3F5E6731B68DA6007F5EC73A3F5EE
:101AF800E8731B689B68D7F8D02102FB03F31846EC
:101B0800FEF7B0FC4FF00002594BFEF74FFE0246BD
:101B18000B4610461946FEF731FF024607F5EC73EF
:101B2800A3F5E6731B68DA6340E307F5EC73A3F5E6
:101B3800E8731B681B68032B40F0968007F5EC736D
:101B4800A3F5AC731A460023136053609360D36007
:101B580013615361936107F5EC73A3F5AC73434AC2
:101B68001A6007F5EC73A3F5AC7301225A6007F508
:101B7800EC73A3F5AC7302229A6007F5EC73A3F536
:101B8800AC7302221A6107F5EC73A3F5AC73022259
:101B98009A6107F18003184600F04EFB07F5EC73D5
:101BA800A3F5E6731B68DB6943F4C04207F5EC73E1
:101BB800A3F5E6731B68DA6107F5EC73A3F5E67322
:101BC8001B68DB6943F4006207F5EC73A3F5E67361
:101BD8001B68DA6107F5EC73A3F5E6731B681B6AEB
:101BE80043F4805207F5EC73A3F5E6731B681A6299
:101BF80007F5EC73A3F5E6731B68DB6843F0010295
:101C080007F5EC73A3F5E6731B68DA6007F5EC7368
:101C1800A3F5E6731B68DB6843F0100207F5EC7365
:101C2800A3F5E6731B68DA6007F5EC73A3F5E873B0
:101C38001B689B68D7F8D02102FB03F31846FEF710
:101C480011FC4FF000020A4BFEF7B0FD02460B46AE
:101C580010461946FEF792FE024607F5EC73A3F507
:101C6800E6731B681A64A1E20023DCE20004024068
:101C780000408F4007F5EC73A3F5E6731B68A74A8D
:101C8800934240F09382A64B1B6CA54A43F0040391
:101C98001364A34B1B6BA24A43F00203136307F5BB
:101CA800EC73A3F5E8731B681B68002B40F0968063
:101CB80007F5EC73A3F5BA731A4600231360536053
:101CC8009360D36013615361936107F5EC73A3F5D7
:101CD800BA73944A1A6007F5EC73A3F5BA7306222F
:101CE8005A6007F5EC73A3F5BA7302229A6007F5F8
:101CF800EC73A3F5BA7302221A6107F5EC73A3F526
:101D0800BA7302229A6107F16403184600F094FA44
:101D180007F5EC73A3F5E6731B689B6943F0600253
:101D280007F5EC73A3F5E6731B689A6107F5EC7386
:101D3800A3F5E6731B689B6943F0080207F5EC738B
:101D4800A3F5E6731B689A6107F5EC73A3F5E673D0
:101D58001B681B6A43F0010207F5EC73A3F5E673F1
:101D68001B681A6207F5EC73A3F5E6731B68DB685A
:101D780043F0010207F5EC73A3F5E6731B68DA601C
:101D880007F5EC73A3F5E6731B68DB6843F0020202
:101D980007F5EC73A3F5E6731B68DA6007F5EC73D7
:101DA800A3F5E8731B689B68D7F8D02102FB03F3FF
:101DB8001846FEF757FB4FF000025B4BFEF7F6FCA8
:101DC80002460B4610461946FEF7D8FD024607F5AF
:101DD800EC73A3F5E6731B685A63E7E107F5EC7348
:101DE800A3F5E8731B681B68012B40F09F8007F57B
:101DF800EC73A3F5C8731A4600231360536093600D
:101E0800D36013615361936107F5EC73A3F5C8734D
:101E1800444A1A6007F5EC73A3F5C87307225A60A1
:101E280007F5EC73A3F5C87302229A6007F5EC7303
:101E3800A3F5C87302221A6107F5EC73A3F5C873FA
:101E480002229A6107F14803184600F0F5F907F5F0
:101E5800EC73A3F5E6731B689B6943F4C04207F56E
:101E6800EC73A3F5E6731B689A6107F5EC73A3F5A9
:101E7800E6731B689B6943F4006207F5EC73A3F5EE
:101E8800E6731B689A6107F5EC73A3F5E6731B68A4
:101E98001B6A43F0100207F5EC73A3F5E6731B68A1
:101EA8001A6207F5EC73A3F5E6731B68DB6843F069
:101EB800010207F5EC73A3F5E6731B68DA6007F512
:101EC800EC73A3F5E6731B68DB6843F0040207F5BF
:101ED800EC73A3F5E6731B68DA6007F5EC73A3F5FA
:101EE800E8731B689B68D7F8D02102FB03F31846F8
:101EF800FEF7B8FA4FF000020B4BFEF757FC02460C
:101F08000B4610461946FEF739FD024607F5EC73F5
:101F1800A3F5E6731B689A6348E100BF0008004018
:101F2800003802400004024000408F4007F5EC737F
:101F3800A3F5E8731B681B68022B40F0968007F531
:101F4800EC73A3F5D6731A460023136053609360AD
:101F5800D36013615361936107F5EC73A3F5D673EE
:101F6800B34A1A6007F5EC73A3F5D67308225A60D2
:101F780007F5EC73A3F5D67302229A6007F5EC73A4
:101F8800A3F5D67302221A6107F5EC73A3F5D6738D
:101F980002229A6107F12C03184600F04DF907F563
:101FA800EC73A3F5E6731B68DB6943F0600207F581
:101FB800EC73A3F5E6731B68DA6107F5EC73A3F518
:101FC800E6731B68DB6943F0080207F5EC73A3F5B9
:101FD800E6731B68DA6107F5EC73A3F5E6731B6813
:101FE8001B6A43F4807207F5EC73A3F5E6731B686C
:101FF8001A6207F5EC73A3F5E6731B68DB6843F018
:10200800010207F5EC73A3F5E6731B68DA6007F5C0
:10201800EC73A3F5E6731B68DB6843F0080207F569
:10202800EC73A3F5E6731B68DA6007F5EC73A3F5A8
:10203800E8731B689B68D7F8D02102FB03F31846A6
:10204800FEF710FA4FF000027A4BFEF7AFFB02469C
:102058000B4610461946FEF791FC024607F5EC734D
:10206800A3F5E6731B68DA63A0E007F5EC73A3F544
:10207800E8731B681B68032B40F0968007F5EC7328
:10208800A3F5E4731A460023136053609360D3608A
:1020980013615361936107F5EC73A3F5E473644A24
:1020A8001A6007F5EC73A3F5E47309225A6007F583
:1020B800EC73A3F5E47302229A6007F5EC73A3F5B9
:1020C800E47302221A6107F5EC73A3F5E4730222A4
:1020D8009A6107F11003184600F0AEF807F5EC73A3
:1020E800A3F5E6731B68DB6943F4C04207F5EC739C
:1020F800A3F5E6731B68DA6107F5EC73A3F5E673DD
:102108001B68DB6943F4006207F5EC73A3F5E6731B
:102118001B68DA6107F5EC73A3F5E6731B681B6AA5
:1021280043F4805207F5EC73A3F5E6731B681A6253
:1021380007F5EC73A3F5E6731B68DB6843F001024F
:1021480007F5EC73A3F5E6731B68DA6007F5EC7323
:10215800A3F5E6731B68DB6843F0100207F5EC7320
:10216800A3F5E6731B68DA6007F5EC73A3F5E8736B
:102178001B689B68D7F8D02102FB03F31846FEF7CB
:1021880071F94FF000022B4BFEF710FB02460B468D
:1021980010461946FEF7F2FB024607F5EC73A3F565
:1021A800E6731B681A6401E000233CE007F5EC7352
:1021B800A3F5E6731B681B6843F0800207F5EC7310
:1021C800A3F5E6731B681A60D7F8D0315A1E07F5D5
:1021D800EC73A3F5E6731B68DA62D7F8D4315A1E9C
:1021E80007F5EC73A3F5E6731B689A6207F5EC73C1
:1021F800A3F5E6731B685B6943F0010207F5EC730E
:10220800A3F5E6731B685A6107F5EC73A3F5E6734B
:102218001B681B6843F0010207F5EC73A3F5E6732E
:102228001B681A600123184607F5EC77BD4680BD88
:102238000004024000408F4080B483B000AF786053
:102248007B68002B01D10023C9E07B681B681A68F2
:102258007B685B685B00032101FA03F3DB431946E3
:102268007B681B680A401A607B681B6819687B6872
:102278009A687B685B685B009A407B681B680A43C6
:102288001A607B689B68012B03D07B689B68022BD4
:102298003FD17B68DB68002B0ED17B681B685A68CE
:1022A8007B685B68012101FA03F3DB4319467B680D
:1022B8001B680A405A6010E07B68DB68012B0CD170
:1022C8007B681B685A687B685B68012101FA03F325
:1022D80019467B681B680A435A607B681B689A68C2
:1022E8007B685B685B00032101FA03F3DB43194653
:1022F8007B681B680A409A607B681B6899687B68E2
:102308001A697B685B685B009A407B681B680A43B4
:102318009A607B689B68032B1BD07B681B68DA6814
:102328007B685B685B00032101FA03F3DB43194612
:102338007B681B680A40DA607B681B68D9687B6821
:102348005A697B685B685B009A407B681B680A4334
:10235800DA607B689B68022B40D17B685B68072B3F
:102368001CD87B681B681A6A7B685B689B000F2116
:1023780001FA03F3DB4319467B681B680A401A62BB
:102388007B681B68196A7B689A697B685B689B0035
:102398009A407B681B680A431A621FE07B681B68C7
:1023A8005A6A7B685B68C3F108039B000F2101FA36
:1023B80003F3DB4319467B681B680A405A627B6853
:1023C8001B68596A7B689A697B685B68C3F1080374
:1023D8009B009A407B681B680A435A62012318468F
:1023E8000C37BD4680BC704780B483B000AF7860BE
:1023F8000B467B8013467B707B68002B01D1002342
:1024080017E07B78012B09D17B689B697A880121C9
:1024180001FA02F21A437B689A6109E07B689B69BA
:102428007A88012101FA02F212041A437B689A6140
:10243800012318460C37BD4680BC704780B483B072
:1024480000AF78600B467B807B681B697A88012126
:1024580001FA02F213407A88012101FA02F293424A
:1024680001D1012300E0002318460C37BD4680BC8B
:102478007047000080B582B000AF03F0CFFC00F0D9
:1024880095F900F053FA00F029FA00F0F9F902F092
:102498004FFB00F083FC00F021FD02F065FB964B3A
:1024A8001B881BB2012B0CBF01230023DBB2002BBE
:1024B80010D0924BFA229A60914BFA229A60914B73
:1024C800FA229A60904BFA229A600021002000F0CC
:1024D800B9FDE2E7884B1B881BB2022B0CBF012316
:1024E8000023DBB2002B10D0844BFA229A60844B75
:1024F800FA229A60834BFA229A60834BFA229A60F6
:102508000021002000F07CFDC7E77B4B1B881BB235
:10251800032B0CBF01230023DBB2002B10D0774B19
:10252800FA229A60764BFA229A60764BFA229A60DF
:10253800754BFA229A600021002000F0C7FDACE735
:102548006D4B1B881BB2042B0CBF01230023DBB28D
:10255800002B10D0694BFA229A60694BFA229A60D4
:10256800684BFA229A60684BFA229A600021002090
:1025780000F08AFD91E7604B1B881BB2052B0CBF4E
:1025880001230023DBB2002B2ED05C4B00229A6083
:102598005B4B00229A605B4B00229A605A4B0022E8
:1025A8009A605A4A55494FF08040FEF785FB574AD2
:1025B80053494FF08040FEF77FFB544A51494FF092
:1025C8008040FEF779FB514A4F494FF08040FEF7B3
:1025D80073FB002207214E48FFF706FF002208215F
:1025E8004B48FFF701FF58E7434B1B881BB2062BEC
:1025F8000CBF01230023DBB2002B10D03F4BFA2283
:102608009A603F4BFA229A603E4BFA229A603E4B00
:10261800FA229A600021002000F07AFD3DE7364B4F
:102628001B881BB2072B0CBF01230023DBB2002B36
:1026380010D0324BFA229A60314BFA229A60314B11
:10264800FA229A60304BFA229A600021002000F0AA
:1026580081FD22E7284B1B881BB2082B0CBF0123E6
:102668000023DBB2002B10D0244BFA229A60244BB3
:10267800FA229A60234BFA229A60234BFA229A6034
:102688000021002000F0E0FD07E71B4B1B881BB270
:10269800092B0CBF01230023DBB2002B10D0174BF2
:1026A800FA229A60164BFA229A60164BFA229A601E
:1026B800154BFA229A600021002000F0F1FDECE6AB
:1026C8000D4B1B881BB20A2B0CBF01230023DBB266
:1026D800002B1FD0094BFA229A60094BFA229A6004
:1026E800084BFA229A60084BFA229A6000210020CF
:1026F80000F052FDD1E600BFB0010020000000202C
:102708000C00002018000020240000200024F40001
:10271800000402401E4B1B881BB20B2B0CBF01236D
:102728000023DBB2002B10D01A4BFA229A601A4B06
:10273800FA229A60194BFA229A60194BFA229A6087
:102748000021002000F054FDA7E6114B1B881BB2A6
:102758000C2B0CBF01230023DBB2002B3FF49DAEF2
:10276800012207210F48FFF73FFE00237B6002E0AC
:102778007B6801337B607B680B4A9342F8DD00225B
:1027880007210848FFF730FE014B05221A8084E62E
:10279800B0010020000000200C00002018000020DC
:1027A8002400002000040240FF69180080B594B09E
:1027B80000AF07F1200330220021184606F003F984
:1027C80007F10C0300221A605A609A60DA601A61F5
:1027D8000023BB60284B1B6C274A43F080531364CB
:1027E800254B1B6C03F08053BB60BB6800237B60E8
:1027F800224B1B6823F44043204A43F400431360F0
:102808001E4B1B6803F440437B607B6802233B62DA
:102818000123FB6210233B630023BB6307F1200302
:10282800184604F065FA0346002B14BF0123002361
:10283800DBB2002B01D000F0B7FB0F23FB600023B5
:102848003B6100237B610023BB610023FB6107F12F
:102858000C030021184604F0C3FC0346002B14BFE8
:1028680001230023DBB2002B01D000F09DFB00BF49
:102878005037BD4680BD00BF0038024000700040A0
:1028880080B500AF134B144A1A60124B4FF46142E3
:102898005A60104B00229A600E4B0022DA600D4BF2
:1028A80000221A610B4B0C225A610A4B00229A61D2
:1028B800084B0022DA61074804F070FE0346002B3B
:1028C80014BF01230023DBB2002B01D000F06CFB06
:1028D80000BF80BDAC0000200010014080B582B070
:1028E80000AF00237B60104B1B6B0F4A43F480033F
:1028F80013630D4B1B6B03F480037B607B68002222
:1029080000213A2003F0F3FB3A2003F00CFC0022EC
:102918000021462003F0EBFB462003F004FC00BF37
:102928000837BD4680BD00BF0038024080B58AB078
:1029380000AF07F1140300221A605A609A60DA6047
:102948001A6100233B613D4B1B6B3C4A43F0040377
:1029580013633A4B1B6B03F004033B613B69002391
:10296800FB60364B1B6B354A43F080031363334BD4
:102978001B6B03F08003FB60FB680023BB602F4BDD
:102988001B6B2E4A43F0020313632C4B1B6B03F0A3
:102998000203BB60BB6800237B60284B1B6B274A84
:1029A80043F001031363254B1B6B03F001037B60AA
:1029B8007B6801224FF40051214804F04FF94FF48D
:1029C80000537B610123BB610023FB6100233B6251
:1029D80007F1140319461A4803F0BEFF4FF41453C5
:1029E8007B614FF40413BB610123FB6107F11403FE
:1029F8001946144803F0B0FF4FF400637B614FF4AD
:102A08000413BB610123FB6107F1140319460E4847
:102A180003F0A2FF00220021172003F068FB172013
:102A280003F081FB00220021282003F060FB28200E
:102A380003F079FB00BF2837BD4680BD003802404F
:102A480000080240000402400000024000000000AC
:102A580080B582B000AF0346FB80FB88B3F5807F6A
:102A680056D109219E48FFF7E9FC0346002B0CBF0D
:102A780001230023DBB2002B1DD09A4B1B881BB20D
:102A88009BB201339BB21AB2964B1A80964B1A68C6
:102A9800964B1B68D31A1846FDF7E4FC02460B4612
:102AA8004FF000009249FDF781FE02460B4691491E
:102AB800C1E9002328E009218948FFF7BFFC034644
:102AC800012B0CBF01230023DBB2002B1CD0854B4C
:102AD8001B881BB29BB2013B9BB21AB2814B1A8076
:102AE800814B1A68814B1B68D31A1846FDF7BAFC4C
:102AF80002460B4678A1D1E90001FDF757FE0246D0
:102B08000B467C49C1E90023774B1B68774A136061
:102B1800FB88B3F5006F56D10C217748FFF78EFC80
:102B28000346002B0CBF01230023DBB2002B1DD072
:102B3800724B1B881BB29BB201339BB21AB26F4B0C
:102B48001A80694B1A686E4B1B68D31A1846FDF732
:102B580089FC02460B464FF000006549FDF726FE4A
:102B680002460B466749C1E9002328E00C21624868
:102B7800FFF764FC0346012B0CBF01230023DBB2E3
:102B8800002B1CD05D4B1B881BB29BB2013B9BB238
:102B98001AB25A4B1A80544B1A68594B1B68D31AED
:102BA8001846FDF75FFC02460B464BA1D1E9000130
:102BB800FDF7FCFD02460B465249C1E900234A4B8A
:102BC8001B684F4A1360FB88B3F5806F56D100210C
:102BD8004348FFF733FC0346002B0CBF01230023B7
:102BE800DBB2002B1DD0484B1B881BB29BB2013BAC
:102BF8009BB21AB2444B1A803B4B1A68434B1B6872
:102C0800D31A1846FDF72EFC02460B4632A1D1E92D
:102C18000001FDF7CBFD02460B463D49C1E9002303
:102C280028E000212E48FFF709FC0346012B0CBFC2
:102C380001230023DBB2002B1CD0334B1B881BB2B3
:102C48009BB201339BB21AB22F4B1A80264B1A68DB
:102C58002E4B1B68D31A1846FDF704FC02460B4698
:102C68004FF000002249FDF7A1FD02460B46284916
:102C7800C1E900231C4B1B68244A1360FB88B3F589
:102C8800005F7AD10E211648FFF7D8FB0346002BC8
:102C98000CBF01230023DBB2002B41D01D4B1B8846
:102CA8001BB29BB2013B9BB21AB21A4B1A800E4B55
:102CB8001A68194B1B68D31A1846FDF7D3FB02464E
:102CC8000B4605A1D1E90001FDF770FD02460B4650
:102CD8001249C1E900234CE00000000000408FC009
:102CE80000040240B2010020BC010020C001002005
:102CF80000408F40D001002000000240B4010020B5
:102D0800C4010020D8010020B6010020C80100201D
:102D1800E0010020B8010020CC010020E8010020DB
:102D28000E211848FFF78AFB0346012B0CBF01232D
:102D38000023DBB2002B1CD0134B1B881BB29BB2A9
:102D480001339BB21AB2104B1A80104B1A68104B01
:102D58001B68D31A1846FDF785FB02460B464FF051
:102D680000000C49FDF722FD02460B460A49C1E95D
:102D78000023064B1B68064A136000BF0837BD4690
:102D880080BD00BF00040240B8010020BC01002043
:102D9800CC01002000408F40E801002080B5A4B09D
:102DA80000AF4C4B1B6B4B4A43F001031363494B79
:102DB8001B6B484A43F00203136307F174030022B4
:102DC8001A605A609A60DA601A615A619A61424BD5
:102DD8007B670123FB670223C7F884300023C7F809
:102DE80080300123BB670023C7F8883007F17403DC
:102DF8001846FFF721FA07F1580300221A605A60B3
:102E08009A60DA601A615A619A61334BBB65012393
:102E18003B660223BB6600237B660223FB65002317
:102E2800FB6607F158031846FFF706FA07F13C035B
:102E380000221A605A609A60DA601A615A619A61CF
:102E4800254BFB6301237B640223FB640023BB64E3
:102E580003233B6400233B6507F13C031846FFF757
:102E6800EBF907F1200300221A605A609A60DA60D1
:102E78001A615A619A61184B3B620123BB620223B3
:102E88003B630023FB6204237B6200237B6307F11F
:102E980020031846FFF7D0F93B1D00221A605A603C
:102EA8009A60DA601A615A619A610B4B7B60012360
:102EB800FB6002237B6100233B610723BB60002387
:102EC800BB613B1D1846FFF7B7F900BF9037BD46F9
:102ED80080BD00BF003802400004024080B59CB0AD
:102EE80000AF07F1540300221A605A609A60DA6052
:102EF8001A615A619A612A4B7B650023FB65092395
:102F0800BB650123BB6607F154031846FFF794F924
:102F180007F1380300221A605A609A60DA601A6171
:102F28005A619A611F4BBB6300233B640C23FB630C
:102F38000123FB6407F138031846FFF77DF907F111
:102F48001C0300221A605A609A60DA601A615A619A
:102F58009A61134BFB6100237B6200233B620123D0
:102F68003B6307F11C031846FFF766F93B4600224E
:102F78001A605A609A60DA601A615A619A61084B5D
:102F88003B600023BB600E237B6001237B613B46D3
:102F98001846FFF751F900BF7037BD4680BD00BF26
:102FA800000402400000024080B400AF72B600BFC7
:102FB800FEE7000080B500AF0C4A0D494FF0804095
:102FC800FDF77AFE094A0B494FF08040FDF774FE81
:102FD800064A09494FF08040FDF76EFE034A07494B
:102FE8004FF08040FDF768FE00BF80BD0024F4006C
:102FF800000000200C000020180000202400002001
:1030080080B582B000AF78603960012203210C4896
:10301800FFF7EAF9012204210948FFF7E5F9002240
:1030280001210748FFF7E0F9002202210448FFF7D1
:10303800DBF9FFF7BFFF00BF0837BD4680BD00BF03
:103048000004024080B582B000AF78603960002289
:1030580003210C48FFF7C8F9002204210948FFF7AB
:10306800C3F9012201210748FFF7BEF90122022115
:103078000448FFF7B9F9FFF79DFF00BF0837BD46C1
:1030880080BD00BF0004024080B582B000AF786008
:103098003960012201210C48FFF7A6F90122042119
:1030A8000948FFF7A1F9012203210748FFF79CF916
:1030B800012202210448FFF797F9FFF77BFF00BFC1
:1030C8000837BD4680BD00BF0004024080B582B00D
:1030D80000AF78603960002201210C48FFF784F9BD
:1030E800002204210948FFF77FF90022032107483D
:1030F800FFF77AF9002202210448FFF775F9FFF774
:1031080059FF00BF0837BD4680BD00BF000402401C
:1031180080B582B000AF78603960002201210C4888
:10312800FFF762F9002204210948FFF75DF901223F
:1031380003210748FFF758F9012202210448FFF745
:1031480053F9FFF737FF00BF0837BD4680BD00BF02
:103158000004024080B582B000AF78603960012277
:1031680001210C48FFF740F9012204210948FFF723
:103178003BF9002203210748FFF736F90022022114
:103188000448FFF731F9FFF715FF00BF0837BD46C0
:1031980080BD00BF0004024080B582B000AF7860F7
:1031A8003960002201210F48FFF71EF90022022191
:1031B8000C48FFF719F90C4B00229A600B4B0022C0
:1031C8009A60002204210748FFF70EF90022032124
:1031D8000448FFF709F9FFF7EDFE00BF0837BD46C1
:1031E80080BD00BF00040240000000200C00002049
:1031F80080B582B000AF78603960002201210F48A5
:10320800FFF7F2F8012204210C48FFF7EDF800223D
:1032180002210A48FFF7E8F8002203210748FFF7D0
:10322800E3F8074B00229A60064B00229A60FFF7EA
:10323800C1FE00BF0837BD4680BD00BF0004024084
:10324800180000202400002080B582B000AF78600C
:103258003960012201210F48FFF7C6F80022042136
:103268000C48FFF7C1F8012202210A48FFF7BCF811
:10327800002203210748FFF7B7F8074B00229A609E
:10328800064B00229A60FFF795FE00BF0837BD463F
:1032980080BD00BF00040240180000202400002068
:1032A80080B582B000AF78603960012201210F48F3
:1032B800FFF79AF8002204210C48FFF795F80C4B09
:1032C80000229A600B4B00229A60012202210748D3
:1032D800FFF78AF8012203210448FFF785F8FFF772
:1032E80069FE00BF0837BD4680BD00BF000402402C
:1032F800000000200C00002080B483B000AF78608C
:103308007B6800221A607B6800225A607B68184636
:103318000C37BD4680BC704780B483B000AF78607E
:10332800044A7B681A607B6818460C37BD4680BC27
:10333800704700BF0890000880B582B000AF786081
:103348007B681846FFF7E8FF064A7B681A607B68C7
:1033580004331846FFF7D0FF7B6818460837BD4688
:1033680080BD00BFF08F000880B485B000AF7860E2
:1033780039600023FB607B685968FB683A6813442E
:10338800CAB21A707B685B68190AFB6801333A682D
:103398001344CAB21A707B685B68190CFB68023365
:1033A8003A681344CAB21A707B685B68190EFB68E6
:1033B80003333A681344CAB21A70FB680433FB60DB
:1033C8007B689968FB683A681344CAB21A707B68CC
:1033D8009B68190AFB6801333A681344CAB21A7029
:1033E8007B689B68190CFB6802333A681344CAB2BD
:1033F8001A707B689B68190EFB6803333A6813449C
:10340800CAB21A70FB680433FB60FB6818461437AD
:10341800BD4680BC704780B485B000AF7860396025
:103428000023FB60FB683A6813441B781A467B68E4
:103438005A607B685A68FB68013339680B441B780B
:103448001B021A437B685A607B685A68FB68023320
:1034580039680B441B781B041A437B685A607B68E5
:103468005A68FB68033339680B441B781B061A43F8
:103478007B685A60FB680433FB60FB683A68134456
:103488001B781A467B689A607B689A68FB680133E8
:1034980039680B441B781B021A437B689A607B6867
:1034A8009A68FB68023339680B441B781B041A437B
:1034B8007B689A607B689A68FB68033339680B44B9
:1034C8001B781B061A437B689A60FB680433FB6011
:1034D800FB6818461437BD4680BC704780B483B07B
:1034E80000AF7860024B18460C37BD4680BC704769
:1034F800888C000880B483B000AF7860024B18460F
:103508000C37BD4680BC7047988C000880B582B0E7
:1035180000AF78607B681846FFF7FEFE0B4A7B68B1
:103528001A607B6800229A807B68094A9A607B68E7
:10353800074ADA607B68064A1A617B6800225A618A
:103548007B6818460837BD4680BD00BFD88F000885
:10355800BC8C000880B588B000AF78603960002363
:10356800FB617B689988FB693A681344CAB21A7090
:103578007B689B881B0A99B2FB6901333A6813443C
:10358800CAB21A70FB690233FB617B689B681846F4
:10359800FCF71EFEB861FB693A681344B96918461E
:1035A80001F018FBFB690433FB61FB693A68D0182A
:1035B8007B689B68BA69194605F03AFAFA69BB69EB
:1035C8001344FB617B68DB681846FCF701FE7861F1
:1035D800FB693A6813447969184601F0FBFAFB69FC
:1035E8000433FB61FB693A68D0187B68DB687A6949
:1035F800194605F01DFAFA697B691344FB617B687B
:103608001B691846FCF7E4FD3861FB693A68134406
:103618003969184601F0DEFAFB690433FB61FB697E
:103628003A68D0187B681B693A69194605F000FAB0
:10363800FA693B691344FB617B685B69FB60F96865
:10364800FB693A681344CAB21A70FB68190AFB6925
:1036580001333A681344CAB21A70FB68190CFB6943
:1036680002333A681344CAB21A70FB68190EFB6930
:1036780003333A681344CAB21A70FB690433FB6116
:10368800FB6918462037BD4680BD80B58AB000AFBB
:10369800786039600023BB61BB693A6813441B78C2
:1036A8009AB27B689A807B689B881AB2BB6901339F
:1036B80039680B441B781B021BB213431BB29AB226
:1036C8007B689A80BB690233BB61BB693A681A445C
:1036D80007F114031146184601F09AFABB6904333E
:1036E800BB61BB697B620BE03A687B6A1A447B6A00
:1036F800013B39680B4412781A707B6A01337B628C
:10370800BA697B6913447A6A9A42EDD3BA697B69CC
:103718001344013B3A68134400221A70BB69013B09
:103728003A681A447B689A60BA697B691344BB613A
:10373800BB693A681A4407F110031146184601F0AC
:1037480067FABB690433BB61BB693B620BE03A684B
:103758003B6A1A443B6A013B39680B4412781A7079
:103768003B6A01333B62BA693B6913443A6A9A423D
:10377800EDD3BA693B691344013B3A68134400220C
:103788001A70BB69013B3A681A447B68DA60BA6907
:103798003B691344BB61BB693A681A4407F10C03DF
:1037A8001146184601F034FABB690433BB61BB69A2
:1037B800FB610BE03A68FB691A44FB69013B396815
:1037C8000B4412781A70FB690133FB61BA69FB6814
:1037D8001344FA699A42EDD3BA69FB681344013B72
:1037E8003A68134400221A70BB69013B3A681A44CC
:1037F8007B681A61BA69FB681344BB610023BB602C
:10380800BB68BA6939680A4412781343BB60BA685E
:10381800BB69013339680B441B781B021343BB6037
:10382800BA68BB69023339680B441B781B0413431D
:10383800BB60BA68BB69033339680B441B781B0645
:103848001343BB60BA687B685A61BB690433BB61C8
:10385800BB6918462837BD4680BD000080B483B0D8
:1038680000AF7860024B18460C37BD4680BC7047E5
:10387800C08C000880B483B000AF7860024B184653
:103888000C37BD4680BC7047DC8C000880B582B020
:1038980000AF78607B681846FFF73EFD064A7B68F4
:1038A8001A607B6800221A717B68044A9A607B68F8
:1038B80018460837BD4680BDC08F0008BC8C00087C
:1038C80080B584B000AF786039600023FB60FB6886
:1038D8003A6813447A6812791A70FB680133FB60FE
:1038E8007B689B681846FCF773FCB860FB683A680D
:1038F8001344B968184601F06DF9FB680433FB609E
:10390800FB683A68D0187B689B68BA68194605F066
:103918008FF8FA68BB681344FB60FB6818461037D9
:10392800BD4680BD80B586B000AF786039600023A1
:103938003B613B693A6813441A787B681A713B69A2
:1039480001333B613B693A681A4407F10C0311469D
:10395800184601F05DF93B6904333B613B697B61C3
:103968000BE03A687B691A447B69013B39680B4470
:1039780012781A707B6901337B613A69FB681344DA
:103988007A699A42EDD33A69FB681344013B3A6875
:10399800134400221A703B69013B3A681A447B6859
:1039A8009A603A69FB6813443B613B6918461837CB
:1039B800BD4680BD80B483B000AF7860024B184626
:1039C8000C37BD4680BC7047008D000880B483B0BA
:1039D80000AF7860024B18460C37BD4680BC704774
:1039E800148D000880B582B000AF78607B681846F7
:1039F800FFF792FC0C4A7B681A607B6800225A60C9
:103A08007B680022DA607B6800221A617B680022EA
:103A18009A617B680022DA617B6800225A627B68BF
:103A280018460837BD4680BDA88F000880B58AB003
:103A380000AF7860396000237B627B6859687B6AD5
:103A48003A681344CAB21A707B685B68190A7B6AC1
:103A580001333A681344CAB21A707B685B68190C60
:103A68007B6A02333A681344CAB21A707B685B688F
:103A7800190E7B6A03333A681344CAB21A707B6A18
:103A880004337B6200233B622AE07B68DA683B6A86
:103A98009B0013441B683B6139697B6A3A6813448D
:103AA800CAB21A703B69190A7B6A01333A6813442F
:103AB800CAB21A703B69190C7B6A02333A6813441C
:103AC800CAB21A703B69190E7B6A03333A68134409
:103AD800CAB21A707B6A04337B623B6A01333B6269
:103AE8007B685B683A6A9A42CFD37B6819697B6ABC
:103AF8003A681344CAB21A707B681B69190A7B6A50
:103B080001333A681344CAB21A707B681B69190CEE
:103B18007B6A02333A681344CAB21A707B681B691D
:103B2800190E7B6A03333A681344CAB21A707B6A67
:103B380004337B620023FB612AE07B689A69FB6996
:103B48009B0013441B68FB60F9687B6A3A6813445E
:103B5800CAB21A70FB68190A7B6A01333A681344BF
:103B6800CAB21A70FB68190C7B6A02333A681344AC
:103B7800CAB21A70FB68190E7B6A03333A68134499
:103B8800CAB21A707B6A04337B62FB690133FB613A
:103B98007B681B69FA699A42CFD37B68D9697B6ACB
:103BA8003A681344CAB21A707B68DB69190A7B6ADF
:103BB80001333A681344CAB21A707B68DB69190C7E
:103BC8007B6A02333A681344CAB21A707B68DB69AD
:103BD800190E7B6A03333A681344CAB21A707B6AB7
:103BE80004337B620023BB6127E07B685A6ABB69A8
:103BF8009B0013441B681846FCF7EAFA78617B6A55
:103C08003A6813447969184600F0E4FF7B6A043384
:103C18007B627B6A3A68D0187B685A6ABB699B00EA
:103C280013441B687A69194604F002FF7A6A7B69B3
:103C380013447B62BB690133BB617B68DB69BA698A
:103C48009A42D2D37B6A18462837BD4680BD80B5D4
:103C58008EB000AF7860396000237B637B6B3A6875
:103C680013441B783B627B6B01333A6813441B781F
:103C78001B023A6A13433B627B6B02333A68134474
:103C88001B781B043A6A13433B627B6B03333A6825
:103C980013441B781B063A6A13433B627B6B04335D
:103CA8007B637B685B683A6A9A420AD97B68DA6800
:103CB8003B6A9B001946104604F04EFE02467B689C
:103CC800DA607B683A6A5A6000233B6335E0002378
:103CD8007B617B697A6B39680A44127813437B618C
:103CE8007A697B6B013339680B441B781B021343D9
:103CF8007B617A697B6B023339680B441B781B0440
:103D080013437B617A697B6B033339680B441B78F7
:103D18001B0613437B617A697B689A607B6B04336B
:103D28007B637B68DA683B6B9B0013447A680832D4
:103D380012681A603B6B01333B637B685B683A6BC4
:103D48009A42C4D37B6B3A6813441B78FB617B6B44
:103D580001333A6813441B781B02FA691343FB6169
:103D68007B6B02333A6813441B781B04FA691343CC
:103D7800FB617B6B03333A6813441B781B06FA69B3
:103D88001343FB617B6B04337B637B681B69FA69B4
:103D98009A420AD97B689A69FB699B0019461046C2
:103DA80004F0DAFD02467B689A617B68FA691A6159
:103DB8000023FB6235E000233B613B697A6B39687D
:103DC8000A44127813433B613A697B6B01333968C3
:103DD8000B441B781B0213433B613A697B6B02332C
:103DE80039680B441B781B0413433B613A697B6BAE
:103DF800033339680B441B781B0613433B613A694C
:103E08007B685A617B6B04337B637B689A69FB6AC6
:103E18009B0013447A68143212681A60FB6A0133F3
:103E2800FB627B681B69FA6A9A42C4D37B6B3A6867
:103E380013441B78BB617B6B01333A6813441B78CE
:103E48001B02BA691343BB617B6B02333A681344A4
:103E58001B781B04BA691343BB617B6B03333A6855
:103E680013441B781B06BA691343BB617B6B04338D
:103E78007B637B68DB69BA699A420AD97B685A6AAC
:103E8800BB699B001946104604F066FD02467B6834
:103E98005A627B68BA69DA610023BB623EE07B6BD9
:103EA8003A681A4407F10C031146184600F0B0FEB0
:103EB8007B6B04337B637B6B7B620BE03A687B6ACA
:103EC8001A447B6A013B39680B4412781A707B6A82
:103ED80001337B627A6BFB6813447A6A9A42EDD3AA
:103EE8007A6BFB681344013B3A68134400221A704A
:103EF8007B6B013B3A681A447B681A627A6BFB68F1
:103F080013447B637B685A6ABB6A9B0013447A68D4
:103F1800203212681A60BB6A0133BB627B68DB69B6
:103F2800BA6A9A42BBD37B6B18463837BD4680BD08
:103F380080B483B000AF7860024B18460C37BD469A
:103F480080BC7047B48E000880B483B000AF78603E
:103F5800024B18460C37BD4680BC7047388D0008A8
:103F680080B485B000AFF860B9607A603B60FB68E8
:103F7800BA681A60FB687A685A60FB683A681A611E
:103F8800FB6818461437BD4680BC704780B582B0C0
:103F980000AF786039607B68D8687B68DB681B682D
:103FA8001B687A6891683A68984703461846083744
:103FB800BD4680BD80B483B000AF78607B681B6964
:103FC80018460C37BD4680BC704780B483B000AF3C
:103FD800786039607B6803F5805301221A707B682A
:103FE80003F5805300225A807B6803F58053002232
:103FF8009A807B6803F580530022DA807B6803F59A
:1040080080531A463B6893607B6818460C37BD4658
:1040180080BC704780B483B000AF78607B6803F5DC
:1040280080539B6818460C37BD4680BC704780B5E6
:1040380082B000AF78607B6803F5805301221A7064
:104048007B6803F5805300225A807B6803F5805310
:1040580098687B6803F500634FF40062194603F023
:1040680069FB00BF0837BD4680BD80B485B000AF8E
:1040780078607B6803F580539B689B6B1B685B6863
:104088009BB2C3F500639BB2C3F30A03FB817B6851
:1040980003F580535B88FA899A4202D14FF0FF33C7
:1040A8001BE07B6803F580535B885A1C91B27A68E1
:1040B80002F5805251801A467B68134493F8003801
:1040C800BB607B6803F580535B88C3F30A039AB22D
:1040D8007B6803F580535A80BB6818461437BD4681
:1040E80080BC704780B586B000AFF860B9607A6070
:1040F8007B68B3F5006F35DC7B68002B32DD00BFD1
:10410800FB6803F580531B7883F00103DBB2002BB7
:10411800F6D100237B610BE07B69BA6813441978F8
:10412800FA687B6913440A461A707B6901337B611C
:104138007A697B689A42EFDBFB6803F580531B784A
:10414800002B10D0FB6803F5805300221A70FB681F
:1041580003F580539B68F9687A6892B2184603F0B1
:104168006BFA00E000BF1837BD4680BD80B483B04D
:1041780000AF78607B6803F5805301221A7000BF96
:104188000C37BD4680BC704780B582B000AF786000
:104198007B6803F5805398687B6803F500634FF4E8
:1041A8000062194603F0C6FA00BF0837BD4680BD55
:1041B80090B583B000AF78607B681C680948FFF74A
:1041C80029FF03461B689C420CBF01230023DBB276
:1041D800002B02D00348FFF7C9FF00BF0C37BD46CC
:1041E80090BD00BFF801002080B582B000AF7860B4
:1041F8000548FFF7C9FF4FF40051044802F046FD97
:1042080000BF0837BD4680BDF80100200008024005
:1042180080B483B000AF78607B68044A1A607B681A
:1042280018460C37BD4680BC704700BFF801002017
:1042380080B582B000AF78607B681B681846FFF7CE
:10424800F6FE00BF0837BD4680BD80B582B000AF1E
:1042580078607B681B681846FFF707FF0346184617
:104268000837BD4680BD80B584B000AFF860B9603E
:104278007A60FB681B687A68B9681846FFF732FFEE
:1042880000BF1037BD4680BD80B582B000AF7860F2
:1042980001F028FE034618460837BD4680BD0000D9
:1042A80080B582B000AF78607B681846FFF734F8B5
:1042B800054A7B681A607B6800229A807B681846EA
:1042C8000837BD4680BD00BF648F000880B485B044
:1042D80000AF786039600023FB607B68B3F9043075
:1042E8003B813989FB683A681344CAB21A703B8922
:1042F8001B0A99B2FB6801333A681344CAB21A70B0
:10430800FB680233FB60FB6818461437BD4680BC67
:10431800704780B485B000AF786039600023FB60D7
:1043280000233B813A89FB6839680B441B789BB2B0
:1043380013439BB23B813B891AB2FB68013339684E
:104348000B441B781B021BB213431BB29BB23B816D
:10435800B7F908207B689A80FB680233FB60FB682A
:1043680018461437BD4680BC7047000080B483B03F
:1043780000AF7860024B18460C37BD4680BC7047CA
:104388005C8D000880B483B000AF7860024B18469B
:104398000C37BD4680BC70476C8D000880B582B074
:1043A80000AF78607B681846FEF7B6FF084A7B685E
:1043B8001A607B68074A5A607B6800229A607B68AB
:1043C8000022DA607B6818460837BD4680BD00BF0A
:1043D8004C8F0008BC8C000880B584B000AF7860B2
:1043E80039600023FB607B685B681846FBF7F0FECA
:1043F800B860FB683A681344B968184600F0EAFBED
:10440800FB680433FB60FB683A68D0187B685B681C
:10441800BA68194604F00CFBFA68BB681344FB60E1
:104428007B689968FB683A681344CAB21A707B685B
:104438009B68190AFB6801333A681344CAB21A70B8
:104448007B689B68190CFB6802333A681344CAB24C
:104458001A707B689B68190EFB6803333A6813442B
:10446800CAB21A70FB680433FB607B68D968FB68C2
:104478003A681344CAB21A707B68DB68190AFB6889
:1044880001333A681344CAB21A707B68DB68190CA6
:10449800FB6802333A681344CAB21A707B68DB6857
:1044A800190EFB6803333A681344CAB21A70FB68E2
:1044B8000433FB60FB6818461037BD4680BD80B5E5
:1044C80086B000AF7860396000233B613B693A6889
:1044D8001A4407F10C031146184600F099FB3B6992
:1044E80004333B613B697B610BE03A687B691A44A2
:1044F8007B69013B39680B4412781A707B69013378
:104508007B613A69FB6813447A699A42EDD33A6948
:10451800FB681344013B3A68134400221A703B6954
:10452800013B3A681A447B685A603A69FB6813444D
:104538003B613B693A6813441B781A467B689A606A
:104548007B689A683B69013339680B441B781B0206
:104558001A437B689A607B689A683B6902333968BA
:104568000B441B781B041A437B689A607B689A6823
:104578003B69033339680B441B781B061A437B6875
:104588009A603B6904333B613B693A6813441B7882
:104598001A467B68DA607B68DA683B6901333968F8
:1045A8000B441B781B021A437B68DA607B68DA6865
:1045B8003B69023339680B441B781B041A437B6838
:1045C800DA607B68DA683B69033339680B441B7827
:1045D8001B061A437B68DA603B6904333B613B691D
:1045E80018461837BD4680BD80B483B000AF7860E8
:1045F800024B18460C37BD4680BC7047908D0008AA
:1046080080B483B000AF7860024B18460C37BD46C3
:1046180080BC7047B08D000880B582B000AF78606C
:104628007B681846FEF778FE0A4A7B681A607B6842
:1046380000225A607B6808331846FFF7AFFE7B6894
:1046480000229A617B680022DA617B681846083785
:10465800BD4680BD348F000880B584B000AF786057
:1046680039600023FB607B685968FB683A6813442B
:10467800CAB21A707B685B68190AFB6801333A682A
:104688001344CAB21A707B685B68190CFB68023362
:104698003A681344CAB21A707B685B68190EFB68E3
:1046A80003333A681344CAB21A70FB680433FB60D8
:1046B8000023BB6017E07B689A69BB681B01D018B0
:1046C8007B689A69BB681B0113441B681B68FA68FE
:1046D80039680A44114698470246FB681344FB6050
:1046E800BB680133BB607B685B68BA689A42E2D3F7
:1046F8007B68D969FB683A681344CAB21A707B6848
:10470800DB69190AFB6801333A681344CAB21A70A4
:104718007B68DB69190CFB6802333A681344CAB238
:104728001A707B68DB69190EFB6803333A68134417
:10473800CAB21A70FB680433FB60FB68184610376E
:10474800BD4680BD80B586B000AF78603960002373
:104758007B617B693A6813441B78FB607B69013392
:104768003A6813441B781B02FA681343FB607B69A1
:1047780002333A6813441B781B04FA681343FB603E
:104788007B6903333A6813441B781B06FA681343A2
:10479800FB607B6904337B617B685B68FA689A42DB
:1047A8000AD97B689A69FB681B011946104604F010
:1047B800D3F802467B689A617B68FA685A600023DE
:1047C8003B611AE07B6803F108007B693A6813448F
:1047D8001946FFF774FE02467B6913447B617B68C8
:1047E8009A693B691B01D0187B6808331022194667
:1047F80004F01EF93B6901333B617B685B683A69E9
:104808009A42DFD37B693A6813441B781A467B685F
:10481800DA617B68DA697B69013339680B441B7894
:104828001B021A437B68DA617B68DA697B690233A9
:1048380039680B441B781B041A437B68DA617B6870
:10484800DA697B69033339680B441B781B061A4302
:104858007B68DA617B6904337B617B6918461837AA
:10486800BD4680BD80B483B000AF7860024B184667
:104878000C37BD4680BC7047D48D000880B483B027
:1048880000AF7860024B18460C37BD4680BC7047B5
:10489800F08D000880B582B000AF78607B6818465C
:1048A800FEF73AFD094A7B681A607B6804331846AC
:1048B800FFF7B2FE7B6800225A627B680022DA6248
:1048C8007B6818460837BD4680BD00BF1C8F0008AE
:1048D80080B586B000AF7860396000237B617B6863
:1048E800181D7B693A6813441946FFF7B5FE02465E
:1048F8007B6913447B617B68596A7B693A68134416
:10490800CAB21A707B685B6A190A7B6901333A6814
:104918001344CAB21A707B685B6A190C7B6902334C
:104928003A681344CAB21A707B685B6A190E7B69CD
:1049380003333A681344CAB21A707B6904337B6143
:1049480000233B611CE07B68DA6A3B695B00134427
:10495800B3F90030BB81B9897B693A681344CAB29C
:104968001A70BB891B0A99B27B6901333A681344F0
:10497800CAB21A707B6902337B613B6901333B61C0
:104988007B685B6A3A699A42DDD37B6918461837B7
:10499800BD4680BD80B586B000AF78603960002321
:1049A8007B617B68181D7B693A6813441946FFF7D9
:1049B800C9FE02467B6913447B617B693A681344EC
:1049C8001B78FB607B6901333A6813441B781B0230
:1049D800FA681343FB607B6902333A6813441B7817
:1049E8001B04FA681343FB607B6903333A6813447A
:1049F8001B781B06FA681343FB607B6904337B61F1
:104A08007B685B6AFA689A420AD97B68DA6AFB684B
:104A18005B001946104603F09FFF02467B68DA6286
:104A28007B68FA685A6200233B612BE000233B81D4
:104A38003A897B6939680B441B789BB213439BB254
:104A48003B813B891AB27B69013339680B441B7877
:104A58001B021BB213431BB29BB23B81B7F9082060
:104A68007B681A857B6902337B617B68DA6A3B69FC
:104A78005B0013447A682832128892B21A803B6924
:104A880001333B617B685B6A3A699A42CED37B69A2
:104A980018461837BD4680BD80B483B000AF786033
:104AA800024B18460C37BD4680BC7047148E000870
:104AB80080B483B000AF7860024B18460C37BD460F
:104AC80080BC7047308E000880B483B000AF786037
:104AD8007B68B3F90420034B1A8000BF0C37BD462E
:104AE80080BC7047B001002080B483B000AF78600C
:104AF8007B68DB6AB3F900200C4B1A807B68DB6AA1
:104B0800B3F90220094B5A807B68DB6AB3F90420A9
:104B1800064B9A807B68DB6AB3F90620034BDA8080
:104B280000BF0C37BD4680BC704700BFF0010020B5
:104B380080B500AF084800F08DF90849064800F034
:104B4800B2F90749044800F0DAF90649024800F0CA
:104B580002FA00BF80BD00BF0412002078230020A5
:104B6800942300206423002080B582B000AF124B4C
:104B78001B881BB23B80114B1B881BB27B80104BE0
:104B88001B881BB2BB800F4B1B881BB2FB800E4BD4
:104B980004225A620C4A3B46D3620B490B48FFF782
:104BA800F5F90A2001F0A8F9094800F001FA00BF58
:104BB8000837BD4680BD00BFB4010020B201002007
:104BC800B6010020B801002034230020642300200F
:104BD8000412002080B485B000AF786039600023EB
:104BE800FB600CE0FB68DB003A6822FA03F17A68A4
:104BF800FB681344CAB21A70FB680133FB60FB6898
:104C0800032BEFD900BF00BF1437BD4680BC7047E7
:104C180080B485B000AF786039607B6800221A6084
:104C28000023FB6010E07B681B683968FA680A4457
:104C380012781146FA68D20001FA02F21A437B6828
:104C48001A60FB680133FB60FB68032BEBD900BFDC
:104C580000BF1437BD4680BC7047000080B483B0E5
:104C680000AF7860044A7B681A607B6818460C3786
:104C7800BD4680BC704700BF948F000880B586B0E1
:104C880000AF78607B681846FFF7E8FF444A7B6806
:104C98001A607B6804331846FFF7BAFA7B6803F595
:104CA8008053002283F8F4207B6803F58853083387
:104CB8001846FEF797FE00237B6109E07B687A6956
:104CC80002F20642002143F822107B6901337B611E
:104CD8007B69182BF2D900233B610AE07A683B69AB
:104CE80003F21E439B00134400225A603B690133C0
:104CF8003B613B69182BF1D90023FB6008E07A6817
:104D0800FB681344183300221A70FB680133FB60F8
:104D1800FB68B3F5006FF2D30023BB6009E07A6843
:104D2800BB68134403F6180300221A70BB680133EA
:104D3800BB60BB68B3F5006FF1D37B6803F58053A4
:104D48001A460023C2F80C317B6803F580531A46D3
:104D58000023C2F814317B6803F580531A460023F8
:104D6800C2F818317B6803F580531A460023C2F84D
:104D780020317B6803F580531A460023C2F80C31B2
:104D88007B6803F580531A460023C2F814317B6808
:104D980000225A617B6818461837BD4680BD00BF9F
:104DA800088F000880B483B000AF7860044A7B683D
:104DB8001A607B6818460C37BD4680BC704700BF38
:104DC8007C8F000880B584B000AFF860B9607A6065
:104DD8003B60FB681846FFF7E5FF0B4AFB681A6063
:104DE800FB680C331846FFF75BFAFB687A685A6170
:104DF800FB683A689A61FB68BA689A60FB6818466B
:104E08001037BD4680BD00BFF08E000880B584B065
:104E180000AFF860B9607A603B60FB681846FFF73E
:104E2800C1FF0B4AFB681A60FB680C331846FFF792
:104E380031FDFB687A68DA63FB683A681A64FB68D4
:104E4800BA689A60FB6818461037BD4680BD00BF37
:104E5800D88E000880B582B000AF78607B680433D4
:104E68001846FFF7E5F97B6803F580531A460023D7
:104E7800C2F8E0307B6803F580531A460023C2F875
:104E8800E4307B6803F580531A460023C2F8EC30FF
:104E98007B6803F580531A460023C2F8E83000BF48
:104EA8000837BD4680BD80B485B000AF78603960F2
:104EB8000023FB601AE07A68FB6803F21E439B003C
:104EC80013445B68002B0ED13A687968FB6803F2DB
:104ED8001E439B000B445A60FB6803F164023B6865
:104EE8005A60012306E0FB680133FB60FB68182B5E
:104EF800E1DD002318461437BD4680BC704780B4F6
:104F080085B000AF786039600023FB601AE07A68EA
:104F1800FB6803F21E439B0013445B68002B0ED111
:104F28003A687968FB6803F21E439B000B445A6099
:104F3800FB6803F164023B685A60012306E0FB68E2
:104F48000133FB60FB68182BE1DD0023184614379A
:104F5800BD4680BC704780B485B000AF78603960CA
:104F68000023FB601BE07B68FA6802F2064253F8F4
:104F78002230002B10D17B68FA6802F206423968A9
:104F880043F82210FB6803F17D023B689A607A6857
:104F98003B68DA60012306E0FB680133FB60FB68CD
:104FA800182BE0DD002318461437BD4680BC704737
:104FB80080B584B000AF78607B6804331846FFF78B
:104FC80063F9F8607B6803F58053D3F8FC30FA681E
:104FD800D31A42F6F822934205D97B6803F5805329
:104FE800002283F8F4207B6803F58053D3F8E0307F
:104FF800002B0ED07B6803F58053D3F80031FA6894
:105008009A4206D97B6803F580531A460023C2F8F2
:10501800E0307B685B69002B13D07B68043318464B
:10502800FFF732F90246FB68D21A7B685B699A423D
:105038008CBF01230023DBB2002B02D06FF00103E9
:105048001DE27B6804331846FFF7FFF8B860BB68B9
:10505800002BC0F2F6817B6803F58053D3F8F0206B
:10506800BB6813447A6802F58052C2F8F0307B6856
:1050780003F58053D3F8E030072B2AD17B6803F57A
:105088008053D3F8EC305A1C796801F58051C1F887
:10509800EC20BA68D1B27A6813440A461A767B685B
:1050A80003F58053D3F8E430013B7A6802F5805267
:1050B800C2F8E4307B6803F58053D3F8E430002B62
:1050C800A7D17B6803F580531A460823C2F8E0305D
:1050D8009FE77B6803F58053D3F8E030002B30D18D
:1050E800BB68FF2B12D17B6803F58053D3F8E030FF
:1050F80001337A6802F58052C2F8E030FB68143355
:105108007A6802F58052C2F8003182E77B6804337E
:105118001846FFF7B9F80246FB68D31A41F28832FD
:1051280093428CBF01230023DBB2002B3FF471AF05
:105138007B6803F58053002283F8F4206FF00103A5
:105148009DE17B6803F58053D3F8E030012B21D132
:10515800BB68FE2B0BD17B6803F58053D3F8E03096
:1051680001337A6802F58052C2F8E03051E77B6873
:1051780003F580531A460023C2F8E0307B6803F534
:10518800805393F8F430002B7FF443AF786800F035
:105198007AF93EE77B6803F58053D3F8E030022BB9
:1051A80020D17B6803F580531A46BB68C2F8E43007
:1051B8007B6803F580531A460023C2F8EC307B68FD
:1051C80003F58053D3F8E03001337A6802F5805252
:1051D800C2F8E0307B6803F580531A46BB68C2F812
:1051E800F03016E77B6803F58053D3F8E030032BE3
:1051F80018D17B6803F58053D3F8E420BB681B0201
:1052080013447A6802F58052C2F8E4307B6803F5EB
:105218008053D3F8E03001337A6802F58052C2F83F
:10522800E030F6E67B6803F58053D3F8E030042BD2
:105238001FD17B6803F58053D3F8F0305A42DBB2B4
:10524800D2B258BF5342FF2B0BD17B6803F5805372
:10525800D3F8E03001337A6802F58052C2F8E030C2
:10526800D7E67B6803F580531A460023C2F8E0307E
:10527800CFE67B6803F58053D3F8E030052B19D1CE
:105288007B6803F580531A46BB68C2F8E8307B6830
:1052980003F58053D3F8E03001337A6802F5805281
:1052A800C2F8E0307B6803F580531A46BB68C2F841
:1052B800F030AEE67B6803F58053D3F8E030062B78
:1052C80023D17B6803F58053D3F8E820BB681B0221
:1052D80013447A6802F58052C2F8E8307B6803F517
:1052E80080531A460723C2F8E0307B6803F58053E1
:1052F800D3F8E430002B7FF48CAE7B6803F5805341
:105308001A460823C2F8E03083E67B6803F5805329
:10531800D3F8E030082B7FF47CAE7B6803F580532C
:105328001A460023C2F8E0307B6803F58053D3F8AF
:10533800F0305A42DBB2D2B258BF5342FF2B7FF44F
:1053480068AE7B6803F58053D3F8E830002B16D19C
:10535800786800F098F8786800F0B2F87B6803F590
:1053680080531A46FB68C2F8F8307B6803F580530F
:105378001A46FB68C2F8FC304FF0FF337FE07B68C9
:1053880003F58053D3F8E8300A2B06D17B6818332D
:105398001946786800F076F93BE67B6803F5805398
:1053A800D3F8E830062B10D17B6803F5885308330F
:1053B8007A68183211461846FEF749FC7B6803F5EF
:1053C8008053012283F8042123E67B6803F5805388
:1053D800D3F8E8300B2B06D17B6803F58053002205
:1053E80083F8F42015E67B6803F58053D3F8E8309A
:1053F800643B7A6803F21E439B0013445B68002BEE
:105408003FF407AE7B6803F58053D3F8E830643B7C
:105418007A6803F21E439B00134458687B6803F5BF
:105428008053D3F8E830643B7A6803F21E439B004C
:1054380013445B681B681B687A68183211469847E2
:10544800E7E500BF7B6803F5805393F8F430002B41
:1054580014D07B6803F58053D3F8F830FA68D31A70
:1054680040F6C412934209D9786800F00CF87B68BA
:1054780003F580531A46FB68C2F8F8300023184633
:105488001037BD4680BD80B586B000AF786007F1A3
:105498000C031846FDF750FF7B681B681B6807F173
:1054A8000C020A21786898477B6804331846FEF78F
:1054B800EBFE02467B689A6000BF1837BD4680BD88
:1054C80090B58BB000AF786007F10C031846FEF773
:1054D8001DF800237B625AE07B687A6A02F2064272
:1054E80053F82230002B4FD07B687A6A02F20642CA
:1054F80053F822309B689BB23B827B687A6A02F23F
:10550800064253F822301B687B617B687A6A02F294
:10551800064253F8223059687B687A6A02F20642DA
:1055280053F822305B681B6808331B6808469847A5
:105538000346BB617B687A6A02F2064253F822305E
:1055480059687B687A6A02F2064253F822305B682F
:105558001B680C331B68084698470346FB614FF4E9
:1055680000633B627B681B681C687B687A6A02F28E
:10557800064253F822301846FEF71CFD014607F193
:105588000C031A467868A0477B6A01337B627B6A02
:10559800182BA1DD00237B6267E07A687B6A03F23F
:1055A8001E439B0013445B68002B5BD07A687B6AC0
:1055B80003F21E439B0013445B685B689BB23B820B
:1055C8007A687B6A03F21E439B0013445B689B68FE
:1055D8007B617A687B6A03F21E439B001344596817
:1055E8007A687B6A03F21E439B0013445B681B685E
:1055F80008331B68084698470346BB617A687B6A8C
:1056080003F21E439B00134459687A687B6A03F2CD
:105618001E439B0013445B681B680C331B680846D9
:1056280098470346FB614FF400633B627B681B6845
:105638001C687A687B6A03F21E439B00134459680E
:105648007A687B6A03F21E439B0013445B681B68FD
:1056580004331B6808469847014607F10C031A46AD
:105668007868A0477B6A01337B627B6A182B94DDDC
:105678007B6803F58053012283F8F42000BF2C37A0
:10568800BD4690BD80B586B000AF7860396007F13F
:1056980008031846FDF750FE7B6804331846FEF7EA
:1056A800F3FD02467B689B68D31A7B6107F1080308
:1056B80039681846FDF7AFFEFA687B691549A1FB02
:1056C80003139B091344FB6039697A69114BA3FBE7
:1056D80002039B094FF47A7000FB03F3D31A0E4AB6
:1056E80002FB03F30B443B6107F10803043319463B
:1056F800786800F0A9F87B6804331846FEF7C4FD03
:1057080002467B6803F58053C3F8FC2000BF1837B6
:10571800BD4680BDD34D621040420F0080B588B0B1
:1057280000AFF860B9607A60BB68632B0BDDFB687B
:1057380003F5805393F8F43083F00103DBB2002BB8
:1057480001D0002379E07B681B681B68FA6802F6C1
:10575800180207321146786898477861FB68FF227B
:1057680083F81828FB68FE2283F819287B69DAB2C7
:10577800FB6883F81A287B699BB21B0A9BB2DAB2D2
:10578800FB6883F81B28FB6893F81A28FB6893F8D2
:105798001B381344DBB2DB43DAB2FB6883F81C28FE
:1057A800BB68DAB2FB6883F81D28BB681BB21B1202
:1057B8001BB2DAB2FB6883F81E280023FB610523BD
:1057C800BB610CE0FA68BB69134403F618031B7845
:1057D8001A46FB691344FB61BB690133BB617B69F2
:1057E8000633BA699A42EDDD7B6907337B61FB6951
:1057F8005A42DBB2D2B258BF5342DAB27B69591C63
:105808007961D243D1B2FA6813440A4683F818285A
:105818007B69B3F5006F0ADCFB68181DFB6803F6AB
:1058280018037A691946FEF71EFD7B6905E00549EC
:10583800F86800F03DF84FF0FF3318462037BD46B2
:1058480080BD00BF548E000880B584B000AF78607A
:1058580039607B6804331846FEF716FDF8603B682C
:105868001A68FB680F49A1FB03139B09D31A5A1E38
:105878007B68DA603B685968FA680A4BA3FB020345
:105888009B094FF47A7000FB03F3D31A064A02FB14
:1058980003F3CA1A054B13447A68136100BF103723
:1058A800BD4680BDD34D621040420F0000CA9A3BEE
:1058B80080B582B000AF786039603A6803217868B3
:1058C80000F004F800BF0837BD4680BD80B588B039
:1058D80000AFF8600B467A60FB7207F114031846B4
:1058E800FDF7D4FFFB7A3B767B68FB61FB681B689E
:1058F8001B6807F114020721F868984700BF203792
:10590800BD4680BD80B582B000AF786039607B68E5
:10591800012B20D13B684FF6FF7293421BD11049EF
:105928001048FEF752FB1048FFF7A8F90F48FEF79A
:10593800B1FF00230D4A0E490E48FEF711FB012363
:105948000D4A0E490E48FFF73DFA01230D4A0E494C
:105958000E48FFF75BFA00BF0837BD4680BD00BFA1
:10596800AC000020F801002004120020342300209D
:10597800908E000864230020D14A00089C8E0008FD
:1059880078230020F14A0008A88E000894230020FC
:1059980080B582B000AF786039607B680C333968B5
:1059A8001846FEF7F7FF7B68DB6B7A680C32104607
:1059B800984700BF0837BD4680BD80B483B000AFAC
:1059C80078607B681B6C18460C37BD4680BC7047F6
:1059D80080B582B000AF78607B680C331846FFF75B
:1059E8005BF8034618460837BD4680BD80B582B0CF
:1059F80000AF78607B680C331846FFF759F8034608
:105A080018460837BD4680BD80B582B000AF7860C3
:105A180039607B680C3339681846FEF77AFC7B6876
:105A28005B697A680C321046984700BF0837BD4654
:105A380080BD80B483B000AF78607B689B691846EE
:105A48000C37BD4680BC704780B582B000AF786027
:105A58007B680C331846FEF789FC0346184608375E
:105A6800BD4680BD80B582B000AF78607B680C33DE
:105A78001846FEF787FC034618460837BD4680BD22
:105A880080B483B000AF78607B6803F5805393F8E7
:105A9800F43018460C37BD4680BC704780B500AF5F
:105AA8004FF6FF710120FFF72DFF80BD80B483B052
:105AB80000AF00237B600F4B5B6C0E4A43F48043BE
:105AC80053640C4B5B6C03F480437B607B6800235E
